:100000000C942A000C9447060C946E060C9447003E
:100010000C9447000C9447000C9447000C94CF07B5
:100020000C9447000C9447000C943A070C94F90682
:100030000C9447000C9447000C9447000C94470024
:100040000C9447000C9447000C9447000C94470014
:100050000C94470011241FBECFE5D8E0DEBFCDBF12
:1000600010E0A0E6B0E0E2EBF2E102C005900D92F4
:10007000A838B107D9F720E0A8E8B0E001C01D9288
:10008000AF3AB207E1F70E94D0000C9457090C94E4
:10009000000080919100813019F410929100089530
:1000A000811105C081E080938F00809391000895B5
:1000B000CF93DF9340918800509189004F5F5F4F4D
:1000C00050938900409388009A013695279536957C
:1000D0002795ABE7B4E10E9448099695879564E6B9
:1000E000689F9001699F300D112442175307A1F4B6
:1000F0001092890010928800C0918A00CA3060F482
:10010000D0E080E00E945004CE56DF4F888380917B
:100110008A008F5F80938A00DF91CF91089580914C
:100120008D0090918E00019690938E0080938D00AB
:1001300020918C00213059F48838934141F4109279
:10014000900010928E0010928D0010928C00809181
:100150008B00813021F540918D0050918E009A01E5
:10016000369527953695279536952795A5ECB0E2D7
:100170000E944809929582958F7089279F708927E0
:1001800068EE73E0869F9001879F300D969F300D3B
:1001900011244217530719F485E10E9405060895BA
:1001A0000E9495020E94950683E00E941B0689E446
:1001B00090E00E9442060E9471030E94A2020E94E7
:1001C0003D0461E085E10E9446050E9409030E940A
:1001D000200788E590E00E94350789EF0E943307E9
:1001E00082E00E94A5060E9461078FE890E00E94CD
:1001F000CA0789EF90E00E94730783E00E947607A8
:1002000080E590E00E94D1028F3F39F48CE390E0CA
:1002100090939D0080939C0009C080E590E00E942F
:10022000D10290E090939D0080939C00809191007A
:10023000813009F065C180918F008130C1F461E0A7
:1002400080E00E94310480E690E00E94C70362E0F3
:1002500080E00E9431048DE690E00E94C703809107
:100260009C0090919D000E94E40310928F008EE10B
:100270000E94CF05813009F04FC08EE10E94CF056A
:100280008130D9F381E080938C0010928E0010921F
:100290008D008091900081110BC062E00E943104BA
:1002A0008BE790E00E94C70381E08093900034C008
:1002B000813091F580919C0090919D0005968C3441
:1002C000910598F490939D0080939C0060E570E008
:1002D0000E94A60262E08DE00E94310480919C00A1
:1002E00090919D000E94E40317C08C349105A0F00A
:1002F0008BE490E090939D0080939C0060E570E01B
:100300000E94A60262E08DE00E94310480919C0070
:1003100090919D000E94E4038FE10E94CF058130FF
:1003200009F04EC08FE10E94CF058130D9F381E002
:1003300080938C0010928E0010928D00809190001E
:1003400081110BC062E00E9431048BE790E00E94B3
:10035000C70381E08093900033C0813089F580919C
:100360009C0090919D0005978332910598F09093A1
:100370009D0080939C0060E570E00E94A60262E010
:100380008DE00E94310480919C0090919D000E941C
:10039000E40316C08397A0F483E290E090939D005D
:1003A00080939C0060E570E00E94A60262E08DE010
:1003B0000E94310480919C0090919D000E94E40372
:1003C00080918C0081110AC062E00E9431048DE6A8
:1003D00090E00E94C70382E080938C0080918A00A5
:1003E0008A3089F51092A3001092A20010928A0020
:1003F00012C0E82FF0E0EE56FF4F90812091A2004E
:100400003091A300290F311D3093A3002093A20047
:100410008F5F80938A0080918A008A3050F3209108
:10042000A2003091A300ADECBCEC0E944809969567
:10043000879596958795969587959093A300809339
:10044000A20010928A008091A2009091A3000E94C5
:10045000B10460939E0070939F008093A0009093DE
:10046000A10020E030E048EC52E40E94B3080E9472
:10047000F6076093A40061E08CE00E943104809153
:10048000A40090E00E94E4038091A40090E02091F9
:100490009C0030919D00A901445051098417950793
:1004A00060F461E08FE00E94BD0460E08EE00E9495
:1004B000BD0481E080938B00B9CE2C5F3F4F28179D
:1004C000390778F460E08FE00E94BD0410928B0041
:1004D00061E08EE00E94BD0461E085E10E94BD0400
:1004E000A5CE60E08FE00E94BD0410928B0060E01A
:1004F0008EE00E94BD0460E085E10E94BD0496CEBE
:10050000811194CE0E94DA0360E085E10E94BD046F
:1005100060E08FE00E94BD0460E08EE00E94BD04B8
:1005200010928C001092900081CE61E08DE10E94CB
:10053000460561E08EE10E94460561E08FE10E9480
:100540004605089581E00E949906089594EA96BFB1
:1005500006B607FEFDCF72FB992790F9292F220FCF
:10056000220F220F71FB992790F9990F990F922B67
:100570007170770F792B706A73B994E896BF06B6DD
:1005800007FEFDCF63B994E896BF06B607FEFDCF20
:1005900083B984E886BF06B607FEFDCF84E986BF2F
:1005A000089524EA26BF06B607FEFDCF92FB222758
:1005B00020F9322F330F330F330F91FB222720F90D
:1005C000220F220F232B9170990F922B292F206A33
:1005D00023B924E826BF06B607FEFDCF83B984E819
:1005E00086BF06B607FEFDCF84EA86BF06B607FEC5
:1005F000FDCF916A93B984E886BF06B607FEFDCFAA
:1006000084E886BF06B607FEFDCF83B194E996BFA6
:10061000089561E08FE00E94460561E08EE00E944F
:1006200046050895CF93C82F84FB662760F985E0BF
:100630000E94BD04C5FB662760F986E00E94BD04E8
:10064000C6FB662760F987E00E94BD046C2F661F19
:100650006627661F8AE00E94BD0461E08BE00E946D
:10066000BD048FE99FE00197F1F700C0000060E052
:100670008BE00E94BD046C2F617085E00E94BD0478
:10068000C1FB662760F986E00E94BD04C2FB6627B5
:1006900060F987E00E94BD04C3FB662760F98AE029
:1006A0000E94BD0461E08BE00E94BD048FE99FE0E1
:1006B0000197F1F700C0000060E08BE00E94BD04EC
:1006C000CF910895CF93C82F60E08DE00E94BD04C4
:1006D00060E08CE00E94BD048C2F0E941203CF9139
:1006E000089561E08DE00E94460561E08CE00E9483
:1006F000460561E08BE00E94460561E085E00E94CE
:10070000460561E086E00E94460561E087E00E94C0
:10071000460561E08AE00E9446052FEF80E792E0FF
:10072000215080409040E1F700C0000082E00E942C
:10073000620388E20E9462038FE99FE00197F1F76C
:1007400000C000008EE00E9462038FE99FE00197E5
:10075000F1F700C0000081E00E9462038FE19EE497
:100760000197F1F700C0000086E00E94620308953F
:10077000CF93C82F61E08DE00E94BD0460E08CE063
:100780000E94BD048C2F0E941203CF9108950F93F5
:100790001F93CF938C01C0E003C00E94B803CF5FCA
:1007A000F801EC0FF11D80818111F7CFCF911F91DE
:1007B0000F91089581E00E9462038FE99FE0019705
:1007C000F1F700C000000895EF92FF921F93CF93BE
:1007D000DF93CDB7DEB760970FB6F894DEBF0FBEDC
:1007E000CDBF7C01009721F480E30E94B8032DC0A7
:1007F000992334F48DE20E94B803F194E194F10856
:1008000010E010C0C7016AE070E00E943409E1E026
:10081000F0E0EC0FFD1FE10FF11D805D80831F5F95
:10082000E62EF72EE114F10469F711500CC0E1E057
:10083000F0E0EC0FFD1FE10FF11D17FDFA9580812F
:100840000E94B8031150112394F760960FB6F894E4
:10085000DEBF0FBECDBFDF91CF911F91FF90EF9014
:100860000895613021F480580E9462030895623037
:1008700019F480540E946203089587B1806487B997
:1008800087B18F7787B986B1816086B986B182607A
:1008900086B986B1846086B986B1806886B90895C4
:1008A000811110C087B18E7F87B987B18D7F87B9DD
:1008B00087B18B7F87B987B1877F87B987B18F7EF3
:1008C00087B947C0813081F487B1816087B987B12A
:1008D0008D7F87B987B18B7F87B987B1877F87B9CC
:1008E00087B18F7E87B935C0823081F487B18E7F22
:1008F00087B987B1826087B987B18B7F87B987B1A4
:10090000877F87B987B18F7E87B923C0833081F411
:1009100087B1816087B987B1826087B987B18B7FE2
:1009200087B987B1877F87B987B18F7E87B911C0B3
:10093000843079F487B18E7F87B987B18D7F87B98D
:1009400087B1846087B987B1877F87B987B18F7E88
:1009500087B986B1806486B93699FECF84B195B1E6
:100960000895BC0180E090E00E94250820E030E07E
:1009700040EA5BE30E94B30808958830F8F46130E0
:1009800069F44BB321E030E0B90102C0660F771F74
:100990008A95E2F7CB01842B8BBB0895611175C05A
:1009A0004BB321E030E0B90102C0660F771F8A9592
:1009B000E2F7CB01809584238BBB089598EF980FC5
:1009C0009830F8F4613069F448B321E030E0B901BF
:1009D00002C0660F771F9A95E2F7CB01842B88BB84
:1009E0000895611152C048B321E030E0B90102C05E
:1009F000660F771F9A95E2F7CB018095842388BB19
:100A0000089590EF980F9830F8F4613069F445B389
:100A100021E030E0B90102C0660F771F9A95E2F736
:100A2000CB01842B85BB089561112FC045B321E014
:100A300030E0B90102C0660F771F9A95E2F7CB014B
:100A40008095842385BB089588518830F0F4613007
:100A500069F442B321E030E0B90102C0660F771FAC
:100A60008A95E2F7CB01842B82BB089561110DC0FA
:100A700042B321E030E0B90102C0660F771F8A95CA
:100A8000E2F7CB018095842382BB08958830F8F487
:100A9000613069F44AB321E030E0B90102C0660F69
:100AA000771F8A95E2F7CB01842B8ABB08956111E9
:100AB00075C04AB321E030E0B90102C0660F771F6C
:100AC0008A95E2F7CB01809584238ABB089598EF3D
:100AD000980F9830F8F4613069F447B321E030E0C2
:100AE000B90102C0660F771F9A95E2F7CB01842BFC
:100AF00087BB0895611152C047B321E030E0B901CE
:100B000002C0660F771F9A95E2F7CB018095842388
:100B100087BB089590EF980F9830F8F4613069F42E
:100B200044B321E030E0B90102C0660F771F9A9507
:100B3000E2F7CB01842B84BB089561112FC044B32D
:100B400021E030E0B90102C0660F771F9A95E2F705
:100B5000CB018095842384BB089588518830F0F4BC
:100B6000613069F441B321E030E0B90102C0660FA1
:100B7000771F8A95E2F7CB01842B81BB0895611121
:100B80000DC041B321E030E0B90102C0660F771F0C
:100B90008A95E2F7CB018095842381BB0895883044
:100BA00058F429B330E0A90102C0559547958A95BC
:100BB000E2F7CA018170089528EF280F283048F421
:100BC00086B390E002C0959587952A95E2F78170EB
:100BD000089520EF280F283048F483B390E002C036
:100BE000959587952A95E2F78170089528EE280F4C
:100BF000283050F490B3892F90E002C095958795E6
:100C00002A95E2F7817008950895CF93C82F0E9426
:100C1000CF05813029F460E08C2F0E94BD0409C00B
:100C20008C2F0E94CF05811104C061E08C2F0E949F
:100C3000BD04CF910895833039F485B7816085BFB5
:100C400085B7826085BF1AC0823039F485B78E7F40
:100C500085BF85B7826085BF11C0811107C085B788
:100C60008E7F85BF85B78D7F85BF08C0813031F409
:100C700085B7816085BF85B78D7F85BF8BB7806461
:100C80008BBF08959093A6008093A50008951F92AE
:100C90000F920FB60F9211242F933F934F935F93B0
:100CA0006F937F938F939F93AF93BF93EF93FF9334
:100CB000E091A500F091A6000995FF91EF91BF91F9
:100CC000AF919F918F917F916F915F914F913F91E4
:100CD0002F910F900FBE0F901F9018951F920F929B
:100CE0000FB60F9211242F933F934F935F936F93FF
:100CF0007F938F939F93AF93BF93EF93FF93E09175
:100D0000A700F091A8000995FF91EF91BF91AF91D5
:100D10009F918F917F916F915F914F913F912F9113
:100D20000F900FBE0F901F9018958FB780688FBFE0
:100D30000895813021F0811102C080EA82B986B71E
:100D4000846086BF88E480B9089581110AC083B7A2
:100D5000816083BF83B78D7F83BF83B78B7F83BF62
:100D60000895813051F483B78E7F83BF83B782604B
:100D700083BF83B78B7F83BF0895823051F483B7DD
:100D8000816083BF83B7826083BF83B78B7F83BF5C
:100D90000895833051F483B78E7F83BF83B78D7FEF
:100DA00083BF83B7846083BF0895843051F483B7D1
:100DB000816083BF83B78D7F83BF83B7846083BF28
:100DC0000895853051F483B78E7F83BF83B78260E7
:100DD00083BF83B7846083BF0895863049F483B7A7
:100DE000816083BF83B7826083BF83B7846083BF22
:100DF00008951F920F920FB60F9211242F933F93D5
:100E00004F935F936F937F938F939F93AF93BF9312
:100E1000EF93FF93E091AB00F091AC000995FF9147
:100E2000EF91BF91AF919F918F917F916F915F9162
:100E30004F913F912F910F900FBE0F901F901895DB
:100E400083B7806883BF83B78F7B83BF83B7886096
:100E500083BF83B78F7E83BF83B78F7D83BF89B7FF
:100E6000826089BF08958CBF08959093AA008093F3
:100E7000A90008951F920F920FB60F9211242F937D
:100E80003F934F935F936F937F938F939F93AF9312
:100E9000BF93EF93FF93E091A900F091AA00099509
:100EA000FF91EF91BF91AF919F918F917F916F9142
:100EB0005F914F913F912F910F900FBE0F901F9018
:100EC00018951FBC1EBC8FB58E7F8FBD8FB58D7FD3
:100ED0008FBD8EB588608EBD8EB58F7E8EBD89B775
:100EE000806189BF08959BBD8ABD0895813051F40A
:100EF0008EB581608EBD8EB58D7F8EBD8EB58B7F9C
:100F00008EBD0895823051F48EB58E7F8EBD8EB524
:100F100082608EBD8EB58B7F8EBD0895833051F477
:100F20008EB581608EBD8EB582608EBD8EB58B7F95
:100F30008EBD0895843051F48EB58E7F8EBD8EB5F2
:100F40008D7F8EBD8EB584608EBD0895853051F441
:100F50008EB581608EBD8EB58D7F8EBD8EB5846061
:100F60008EBD0895863051F48EB58E7F8EBD8EB5C0
:100F700082608EBD8EB584608EBD0895873049F441
:100F80008EB581608EBD8EB582608EBD8EB584605B
:100F90008EBD08959093AE008093AD0008951F928A
:100FA0000F920FB60F9211242F933F934F935F939D
:100FB0006F937F938F939F93AF93BF93EF93FF9321
:100FC000E091AD00F091AE000995FF91EF91BF91D6
:100FD000AF919F918F917F916F915F914F913F91D1
:100FE0002F910F900FBE0F901F9018950E9492089E
:100FF00088F09F5798F0B92F9927B751B0F0E1F0DA
:10100000660F771F881F991F1AF0BA95C9F714C089
:10101000B13091F00E94AC08B1E008950C94AC0896
:10102000672F782F8827B85F39F0B93FCCF38695C2
:1010300077956795B395D9F73EF49095809570951F
:1010400061957F4F8F4F9F4F0895E89409C097FB9C
:101050003EF490958095709561957F4F8F4F9F4F8F
:101060009923A9F0F92F96E9BB279395F6958795D3
:1010700077956795B795F111F8CFFAF4BB0F11F496
:1010800060FF1BC06F5F7F4F8F4F9F4F16C088233D
:1010900011F096E911C0772321F09EE8872F762F73
:1010A00005C0662371F096E8862F70E060E02AF0B4
:1010B0009A95660F771F881FDAF7880F96958795A0
:1010C00097F9089597F99F6780E870E060E00895C8
:1010D0009FEF80EC089500240A9416161706180650
:1010E0000906089500240A9412161306140605062C
:1010F0000895092E0394000C11F4882352F0BB0FBD
:1011000040F4BF2B11F460FF04C06F5F7F4F8F4F1F
:101110009F4F089557FD9058440F551F59F05F3F5A
:1011200071F04795880F97FB991F61F09F3F79F009
:1011300087950895121613061406551FF2CF46958B
:10114000F1DF08C0161617061806991FF1CF86950D
:101150007105610508940895E894BB2766277727F1
:10116000CB0197F908950E94C6080C9479080E9453
:101170006B0838F00E94720820F0952311F00C944F
:1011800062080C94680811240C94AD080E948A0827
:1011900070F3959FC1F3950F50E0551F629FF001CA
:1011A000729FBB27F00DB11D639FAA27F00DB11DE3
:1011B000AA1F649F6627B00DA11D661F829F22276C
:1011C000B00DA11D621F739FB00DA11D621F839FF3
:1011D000A00D611D221F749F3327A00D611D231FC9
:1011E000849F600D211D822F762F6A2F11249F5717
:1011F00050409AF0F1F088234AF0EE0FFF1FBB1F1A
:10120000661F771F881F91505040A9F79E3F5105D8
:1012100080F00C9462080C94AD085F3FE4F3983EB4
:10122000D4F3869577956795B795F795E7959F5F82
:10123000C1F7FE2B880F911D9695879597F9089514
:10124000AA1BBB1B51E107C0AA1FBB1FA617B707EC
:1012500010F0A61BB70B881F991F5A95A9F7809508
:101260009095BC01CD01089597FB072E16F40094CC
:1012700007D077FD09D00E94200907FC05D03EF475
:10128000909581959F4F0895709561957F4F089532
:10129000A29FB001B39FC001A39F700D811D1124B7
:1012A000911DB29F700D811D1124911D0895F89418
:0212B000FFCF6E
:1012B20041637475616C2054656D703A00446573C6
:1012C200697265642054656D703A0054656D70539F
:0812D20065744D6F6465200096
:00000001FF
